:100000000C945A000C9477000C9477000C947700B1
:100010000C9477000C9477000C9477000C94770084
:100020000C9477000C9477000C9477000C94770074
:100030000C9477000C9477000C9477000C94770064
:100040000C9477000C9477000C9477000C94770054
:100050000C9477000C9477000C9477000C94770044
:100060000C9477000C9477000C9477000C94770034
:100070000C9477000C9477000C9477000C94770024
:100080000C9477000C9477000C9477000C94770014
:100090000C9477000C9477000C9477000C94770004
:1000A0000C9477000C9477000C9449010C94770021
:1000B0000C94770011241FBECFEFD8E0DEBFCDBF78
:1000C00011E0A0E0B1E0E4E5F3E002C005900D929C
:1000D000A036B107D9F721E0A0E6B1E001C01D923A
:1000E000AC36B207E1F70E948C010C94A8010C9485
:1000F000000007E004B900E005B901B910E007E627
:100100001093C5000093C40008E10093C10006E00D
:100110000093C20007E800937A0000E400937C009B
:1001200000E000937B000EEF00937E000FEF009342
:100130007F0008950E94D7000FEF0AB90091610176
:100140000BB904E005B90E94AC0000E005B90E94BB
:10015000AC000E94D10008950FEF1FEF1A95F1F740
:100160000A95D9F708950E94D7000FEF0AB90091B8
:1001700061010BB906E005B90E94AC0000E005B9C9
:100180000E94AC000E94D10008950E94D70000E0B8
:100190000AB945B80BB10093610105B80E94D100BE
:1001A000089502E00AB908E10093C100089500E053
:1001B0000093C10008950091C00007FF08950091C9
:1001C000C600F9CF0091C00007FFFCCF0091C60028
:1001D0000093630108951091C00015FFFCCF0091BA
:1001E00063010093C600089507EC00937A00009124
:1001F0007A0006FDFCCF0091780000936901009120
:100200007900009362010895F999FECF20E015E08E
:1002100006E422BD11BD00BDFA9AF99A0895F99934
:10022000FECF20E015E000E022BD11BDF89A00B538
:10023000009363010895CF93DF93EC0105C02196ED
:10024000809363010E94EB0088818111F8CFDF91D8
:10025000CF91089581E491E00E941B018AE091E032
:100260000E941B0180E091E00E941B010895FC01A7
:100270003297828121E030E002C0220F331F6A955D
:10028000E2F7922F9095892382838181282B218305
:1002900008951F920F920FB60F9211248F9381E051
:1002A000809360011092A1008F910F900FBE0F906C
:1002B0001F9018951092A1008830910568F08B3F2F
:1002C0002FE0920760F482959295907F9827807F27
:1002D00098278055910905C081E090E002C08FEF1A
:1002E0009FEFE1EAF0E010821092A0002FB7F8949F
:1002F000908787832FBF82E0809372009FB77894A6
:1003000089E08083809160018823E1F3109260018D
:100310009FBF1092A10008950E9479000E942A01B7
:1003200065E088E290E00E94370188B190E0809516
:1003300090958072992798B1892788B982E390E0D7
:100340000E945A0188B198B18072892788B9EDCF8F
:04035000F894FFCF4F
:100354000D0A52656164793A20000D0A62792045DC
:100364007567656E6520526F636B657920436F70A6
:1003740079726967687420323032322C20416C6C97
:100384002052696768747320526573657276656478
:10039400000D0A4543452D3431322041544D6567E3
:1003A4006133323850422054696E79204F53000033
:00000001FF
